{
  "_format": "hh-sol-artifact-1",
  "contractName": "SolanaEVMBridge",
  "sourceName": "contracts/evm-bridge.sol",
  "abi": [
    {
      "inputs": [
        {
          "internalType": "address",
          "name": "_addr",
          "type": "address"
        }
      ],
      "stateMutability": "nonpayable",
      "type": "constructor"
    },
    {
      "inputs": [
        {
          "internalType": "address",
          "name": "owner",
          "type": "address"
        }
      ],
      "name": "OwnableInvalidOwner",
      "type": "error"
    },
    {
      "inputs": [
        {
          "internalType": "address",
          "name": "account",
          "type": "address"
        }
      ],
      "name": "OwnableUnauthorizedAccount",
      "type": "error"
    },
    {
      "inputs": [
        {
          "internalType": "address",
          "name": "token",
          "type": "address"
        }
      ],
      "name": "SafeERC20FailedOperation",
      "type": "error"
    },
    {
      "anonymous": false,
      "inputs": [
        {
          "indexed": true,
          "internalType": "address",
          "name": "depositor",
          "type": "address"
        },
        {
          "indexed": false,
          "internalType": "uint32",
          "name": "sourceChainId",
          "type": "uint32"
        },
        {
          "indexed": false,
          "internalType": "uint32",
          "name": "destChainId",
          "type": "uint32"
        },
        {
          "indexed": false,
          "internalType": "string",
          "name": "destChainAddr",
          "type": "string"
        },
        {
          "indexed": false,
          "internalType": "string",
          "name": "destChainMintAddr",
          "type": "string"
        },
        {
          "indexed": false,
          "internalType": "address",
          "name": "tokenMint",
          "type": "address"
        },
        {
          "indexed": false,
          "internalType": "uint256",
          "name": "amount",
          "type": "uint256"
        },
        {
          "indexed": false,
          "internalType": "uint256",
          "name": "timestamp",
          "type": "uint256"
        },
        {
          "indexed": false,
          "internalType": "uint256",
          "name": "depositId",
          "type": "uint256"
        }
      ],
      "name": "EthDeposit",
      "type": "event"
    },
    {
      "anonymous": false,
      "inputs": [
        {
          "indexed": true,
          "internalType": "address",
          "name": "previousOwner",
          "type": "address"
        },
        {
          "indexed": true,
          "internalType": "address",
          "name": "newOwner",
          "type": "address"
        }
      ],
      "name": "OwnershipTransferred",
      "type": "event"
    },
    {
      "anonymous": false,
      "inputs": [
        {
          "indexed": true,
          "internalType": "uint256",
          "name": "stateRoot",
          "type": "uint256"
        },
        {
          "indexed": false,
          "internalType": "uint256",
          "name": "blockHeight",
          "type": "uint256"
        },
        {
          "indexed": false,
          "internalType": "address",
          "name": "updater",
          "type": "address"
        }
      ],
      "name": "StateRootUpdated",
      "type": "event"
    },
    {
      "anonymous": false,
      "inputs": [
        {
          "indexed": true,
          "internalType": "uint256",
          "name": "depositId",
          "type": "uint256"
        },
        {
          "indexed": true,
          "internalType": "address",
          "name": "recipient",
          "type": "address"
        },
        {
          "indexed": true,
          "internalType": "address",
          "name": "tokenContract",
          "type": "address"
        },
        {
          "indexed": false,
          "internalType": "uint256",
          "name": "amount",
          "type": "uint256"
        }
      ],
      "name": "WithdrawalProcessed",
      "type": "event"
    },
    {
      "inputs": [],
      "name": "SOLANA_CHAIN_ID",
      "outputs": [
        {
          "internalType": "uint256",
          "name": "",
          "type": "uint256"
        }
      ],
      "stateMutability": "view",
      "type": "function"
    },
    {
      "inputs": [
        {
          "internalType": "address",
          "name": "relayer",
          "type": "address"
        }
      ],
      "name": "addAuthorizedRelayer",
      "outputs": [],
      "stateMutability": "nonpayable",
      "type": "function"
    },
    {
      "inputs": [
        {
          "internalType": "string",
          "name": "",
          "type": "string"
        }
      ],
      "name": "addressMapping",
      "outputs": [
        {
          "internalType": "address",
          "name": "",
          "type": "address"
        }
      ],
      "stateMutability": "view",
      "type": "function"
    },
    {
      "inputs": [
        {
          "internalType": "address",
          "name": "",
          "type": "address"
        }
      ],
      "name": "authorizedRelayers",
      "outputs": [
        {
          "internalType": "bool",
          "name": "",
          "type": "bool"
        }
      ],
      "stateMutability": "view",
      "type": "function"
    },
    {
      "inputs": [
        {
          "internalType": "uint32",
          "name": "sourceChainId",
          "type": "uint32"
        },
        {
          "internalType": "uint32",
          "name": "destChainId",
          "type": "uint32"
        },
        {
          "internalType": "string",
          "name": "destChainAddr",
          "type": "string"
        },
        {
          "internalType": "string",
          "name": "destChainMintAddr",
          "type": "string"
        },
        {
          "internalType": "address",
          "name": "tokenMint",
          "type": "address"
        },
        {
          "internalType": "uint256",
          "name": "amount",
          "type": "uint256"
        }
      ],
      "name": "deposit",
      "outputs": [],
      "stateMutability": "nonpayable",
      "type": "function"
    },
    {
      "inputs": [],
      "name": "depositCount",
      "outputs": [
        {
          "internalType": "uint256",
          "name": "",
          "type": "uint256"
        }
      ],
      "stateMutability": "view",
      "type": "function"
    },
    {
      "inputs": [
        {
          "internalType": "address",
          "name": "tokenContract",
          "type": "address"
        },
        {
          "internalType": "uint256",
          "name": "amount",
          "type": "uint256"
        }
      ],
      "name": "depositTokens",
      "outputs": [],
      "stateMutability": "nonpayable",
      "type": "function"
    },
    {
      "inputs": [
        {
          "internalType": "address",
          "name": "tokenContract",
          "type": "address"
        },
        {
          "internalType": "uint256",
          "name": "amount",
          "type": "uint256"
        }
      ],
      "name": "emergencyWithdraw",
      "outputs": [],
      "stateMutability": "nonpayable",
      "type": "function"
    },
    {
      "inputs": [
        {
          "internalType": "address",
          "name": "tokenContract",
          "type": "address"
        }
      ],
      "name": "getTokenBalance",
      "outputs": [
        {
          "internalType": "uint256",
          "name": "",
          "type": "uint256"
        }
      ],
      "stateMutability": "view",
      "type": "function"
    },
    {
      "inputs": [
        {
          "internalType": "uint256",
          "name": "nullifier",
          "type": "uint256"
        }
      ],
      "name": "isNullifierUsed",
      "outputs": [
        {
          "internalType": "bool",
          "name": "",
          "type": "bool"
        }
      ],
      "stateMutability": "view",
      "type": "function"
    },
    {
      "inputs": [
        {
          "internalType": "uint256",
          "name": "stateRoot",
          "type": "uint256"
        }
      ],
      "name": "isStateRootValid",
      "outputs": [
        {
          "internalType": "bool",
          "name": "",
          "type": "bool"
        }
      ],
      "stateMutability": "view",
      "type": "function"
    },
    {
      "inputs": [
        {
          "internalType": "string",
          "name": "base58Addr",
          "type": "string"
        },
        {
          "internalType": "address",
          "name": "ethAddr",
          "type": "address"
        }
      ],
      "name": "mapAddress",
      "outputs": [],
      "stateMutability": "nonpayable",
      "type": "function"
    },
    {
      "inputs": [
        {
          "internalType": "string",
          "name": "solanaMint",
          "type": "string"
        },
        {
          "internalType": "address",
          "name": "tokenContract",
          "type": "address"
        }
      ],
      "name": "mapToken",
      "outputs": [],
      "stateMutability": "nonpayable",
      "type": "function"
    },
    {
      "inputs": [],
      "name": "minAmount",
      "outputs": [
        {
          "internalType": "uint256",
          "name": "",
          "type": "uint256"
        }
      ],
      "stateMutability": "view",
      "type": "function"
    },
    {
      "inputs": [],
      "name": "owner",
      "outputs": [
        {
          "internalType": "address",
          "name": "",
          "type": "address"
        }
      ],
      "stateMutability": "view",
      "type": "function"
    },
    {
      "inputs": [
        {
          "components": [
            {
              "internalType": "string",
              "name": "owner",
              "type": "string"
            },
            {
              "internalType": "uint32",
              "name": "sourceChainId",
              "type": "uint32"
            },
            {
              "internalType": "uint32",
              "name": "destChainId",
              "type": "uint32"
            },
            {
              "internalType": "address",
              "name": "destChainAddr",
              "type": "address"
            },
            {
              "internalType": "address",
              "name": "destChainMintAddr",
              "type": "address"
            },
            {
              "internalType": "string",
              "name": "mint",
              "type": "string"
            },
            {
              "internalType": "uint256",
              "name": "amount",
              "type": "uint256"
            },
            {
              "internalType": "string",
              "name": "timestamp",
              "type": "string"
            },
            {
              "internalType": "uint256",
              "name": "depositId",
              "type": "uint256"
            }
          ],
          "internalType": "struct SolanaEVMBridge.SolDepositRecord",
          "name": "record",
          "type": "tuple"
        },
        {
          "components": [
            {
              "internalType": "uint256[2]",
              "name": "a",
              "type": "uint256[2]"
            },
            {
              "internalType": "uint256[2][2]",
              "name": "b",
              "type": "uint256[2][2]"
            },
            {
              "internalType": "uint256[2]",
              "name": "c",
              "type": "uint256[2]"
            },
            {
              "internalType": "uint256[7]",
              "name": "publicSignals",
              "type": "uint256[7]"
            }
          ],
          "internalType": "struct SolanaEVMBridge.ZKProof",
          "name": "proof",
          "type": "tuple"
        }
      ],
      "name": "processWithdrawal",
      "outputs": [],
      "stateMutability": "nonpayable",
      "type": "function"
    },
    {
      "inputs": [
        {
          "internalType": "address",
          "name": "relayer",
          "type": "address"
        }
      ],
      "name": "removeAuthorizedRelayer",
      "outputs": [],
      "stateMutability": "nonpayable",
      "type": "function"
    },
    {
      "inputs": [],
      "name": "renounceOwnership",
      "outputs": [],
      "stateMutability": "nonpayable",
      "type": "function"
    },
    {
      "inputs": [
        {
          "internalType": "uint256",
          "name": "_minAmount",
          "type": "uint256"
        }
      ],
      "name": "setMinAmount",
      "outputs": [],
      "stateMutability": "nonpayable",
      "type": "function"
    },
    {
      "inputs": [
        {
          "internalType": "string",
          "name": "",
          "type": "string"
        }
      ],
      "name": "tokenMapping",
      "outputs": [
        {
          "internalType": "address",
          "name": "",
          "type": "address"
        }
      ],
      "stateMutability": "view",
      "type": "function"
    },
    {
      "inputs": [
        {
          "internalType": "address",
          "name": "newOwner",
          "type": "address"
        }
      ],
      "name": "transferOwnership",
      "outputs": [],
      "stateMutability": "nonpayable",
      "type": "function"
    },
    {
      "inputs": [
        {
          "internalType": "uint256",
          "name": "",
          "type": "uint256"
        }
      ],
      "name": "usedNullifiers",
      "outputs": [
        {
          "internalType": "bool",
          "name": "",
          "type": "bool"
        }
      ],
      "stateMutability": "view",
      "type": "function"
    },
    {
      "inputs": [
        {
          "internalType": "uint256",
          "name": "",
          "type": "uint256"
        }
      ],
      "name": "validStateRoots",
      "outputs": [
        {
          "internalType": "bool",
          "name": "",
          "type": "bool"
        }
      ],
      "stateMutability": "view",
      "type": "function"
    },
    {
      "inputs": [],
      "name": "verifier",
      "outputs": [
        {
          "internalType": "contract SolDepositVerifier",
          "name": "",
          "type": "address"
        }
      ],
      "stateMutability": "view",
      "type": "function"
    }
  ],
  "bytecode": "0x60a0604052600160075534801561001557600080fd5b50604051611434380380611434833981016040819052610034916100df565b338061005a57604051631e4fbdf760e01b81526000600482015260240160405180910390fd5b6100638161008f565b506001600160a01b0316608052336000908152600460205260409020805460ff1916600117905561010f565b600080546001600160a01b038381166001600160a01b0319831681178455604051919092169283917f8be0079c531659141344cd1fd0a4f28419497f9722a3daafe3b4186f6b6457e09190a35050565b6000602082840312156100f157600080fd5b81516001600160a01b038116811461010857600080fd5b9392505050565b608051611303610131600039600081816102110152610a6101526113036000f3fe608060405234801561001057600080fd5b50600436106101585760003560e01c806366168bd7116100c35780639b2cb5d81161007c5780639b2cb5d814610333578063aad240611461033c578063be41b0301461035f578063c6c0572d14610372578063e88ad95314610395578063f2fde38b146103c957600080fd5b806366168bd7146102ce578063715018a6146102e15780637cf4eb98146102e9578063897b0637146102fc5780638da5cb5b1461030f57806395ccea671461032057600080fd5b80633aecd0e3116101155780633aecd0e31461023c5780633d8f57bb1461024f5780634500d820146102725780634c613b6214610285578063507b83af146102985780635a71e2f8146102bb57600080fd5b8063067bd07a1461015d578063086533da146101785780631d7391a91461018d57806329e295c5146101d95780632b7ac3f31461020c5780632dfdf0b514610233575b600080fd5b610165600181565b6040519081526020015b60405180910390f35b61018b610186366004610e55565b6103dc565b005b6101c161019b366004610f1c565b80516020818301810180516005825292820191909301209152546001600160a01b031681565b6040516001600160a01b03909116815260200161016f565b6101fc6101e7366004610e55565b60046020526000908152604090205460ff1681565b604051901515815260200161016f565b6101c17f000000000000000000000000000000000000000000000000000000000000000081565b61016560015481565b61016561024a366004610e55565b610405565b6101fc61025d366004610f59565b60009081526003602052604090205460ff1690565b61018b610280366004610f72565b610476565b61018b610293366004611009565b6104c5565b6101fc6102a6366004610f59565b60036020526000908152604090205460ff1681565b61018b6102c9366004610e55565b61079a565b61018b6102dc3660046110ae565b6107c6565b61018b6107df565b61018b6102f7366004610f72565b6107f3565b61018b61030a366004610f59565b61080e565b6000546001600160a01b03166101c1565b61018b61032e3660046110ae565b61081b565b61016560075481565b6101fc61034a366004610f59565b60026020526000908152604090205460ff1681565b61018b61036d3660046110d8565b610849565b6101fc610380366004610f59565b60009081526002602052604090205460ff1690565b6101c16103a3366004610f1c565b80516020818301810180516006825292820191909301209152546001600160a01b031681565b61018b6103d7366004610e55565b610c6a565b6103e4610ca8565b6001600160a01b03166000908152600460205260409020805460ff19169055565b6040516370a0823160e01b81523060048201526000906001600160a01b038316906370a0823190602401602060405180830381865afa15801561044c573d6000803e3d6000fd5b505050506040513d601f19601f82011682018060405250810190610470919061113a565b92915050565b61047e610ca8565b8060058484604051610491929190611153565b90815260405190819003602001902080546001600160a01b03929092166001600160a01b0319909216919091179055505050565b468663ffffffff16146105165760405162461bcd60e51b815260206004820152601460248201527324b73b30b634b21039b7bab931b29031b430b4b760611b60448201526064015b60405180910390fd5b60018563ffffffff161461056c5760405162461bcd60e51b815260206004820152601960248201527f496e76616c69642064657374696e6174696f6e20636861696e00000000000000604482015260640161050d565b60008451116105bd5760405162461bcd60e51b815260206004820152601b60248201527f496e76616c69642064657374696e6174696f6e20616464726573730000000000604482015260640161050d565b600083511161060e5760405162461bcd60e51b815260206004820181905260248201527f496e76616c69642064657374696e6174696f6e206d696e742061646472657373604482015260640161050d565b6001600160a01b0382166106645760405162461bcd60e51b815260206004820152601a60248201527f496e76616c696420746f6b656e206d696e742061646472657373000000000000604482015260640161050d565b6040516370a0823160e01b815233600482015282906000906001600160a01b038316906370a0823190602401602060405180830381865afa1580156106ad573d6000803e3d6000fd5b505050506040513d601f19601f820116820180604052508101906106d1919061113a565b9050828110156107165760405162461bcd60e51b815260206004820152601060248201526f105b5bdd5b9d081d1bdbc81cdb585b1b60821b604482015260640161050d565b61072b6001600160a01b038316333086610cd5565b336001600160a01b03167f557b349e23ec5d30681d79fced78e70761384c61dc93986fecbc9e68cbb4a96a898989898989426001600081548092919061077090611163565b919050556040516107889897969594939291906111d0565b60405180910390a25050505050505050565b6107a2610ca8565b6001600160a01b03166000908152600460205260409020805460ff19166001179055565b6107db6001600160a01b038316333084610cd5565b5050565b6107e7610ca8565b6107f16000610d42565b565b6107fb610ca8565b8060068484604051610491929190611153565b610816610ca8565b600755565b610823610ca8565b6107db6108386000546001600160a01b031690565b6001600160a01b0384169083610d92565b600161085b6040840160208501611240565b63ffffffff16146108a55760405162461bcd60e51b815260206004820152601460248201527324b73b30b634b21039b7bab931b29031b430b4b760611b604482015260640161050d565b6007548260c0013510156108ee5760405162461bcd60e51b815260206004820152601060248201526f105b5bdd5b9d081d1bdbc81cdb585b1b60821b604482015260640161050d565b60006109006080840160608501610e55565b90506001600160a01b0381166109585760405162461bcd60e51b815260206004820152601960248201527f496e76616c696420726563697069656e74206164647265737300000000000000604482015260640161050d565b61010082013560009081526002602052604090205460ff16156109b65760405162461bcd60e51b8152602060048201526016602482015275139d5b1b1a599a595c88185b1c9958591e481d5cd95960521b604482015260640161050d565b6101008201356000908152600260205260408120805460ff191660011790556109e560a0850160808601610e55565b6001600160a01b031603610a345760405162461bcd60e51b8152602060048201526016602482015275125b9d985b1a59081d1bdad95b8818dbdb9d1c9858dd60521b604482015260640161050d565b6000610a4660a0850160808601610e55565b6040805163c894e75760e01b81529192506001600160a01b037f0000000000000000000000000000000000000000000000000000000000000000169163c894e75791610aa491879182019060c083019061010084019060040161125b565b602060405180830381865afa158015610ac1573d6000803e3d6000fd5b505050506040513d601f19601f82011682018060405250810190610ae591906112ab565b610b245760405162461bcd60e51b815260206004820152601060248201526f24b73b30b634b2102d2590383937b7b360811b604482015260640161050d565b6040516370a0823160e01b81523060048201526000906001600160a01b038316906370a0823190602401602060405180830381865afa158015610b6b573d6000803e3d6000fd5b505050506040513d601f19601f82011682018060405250810190610b8f919061113a565b90508460c00135811015610be55760405162461bcd60e51b815260206004820152601d60248201527f496e73756666696369656e7420636f6e74726163742062616c616e6365000000604482015260640161050d565b610bfd6001600160a01b0383168460c0880135610d92565b610c0d60a0860160808701610e55565b6001600160a01b0316836001600160a01b03168661010001357f892a34c1e11439b608e4584af3a462df8813950122fc0d358d4575b128caff248860c00135604051610c5b91815260200190565b60405180910390a45050505050565b610c72610ca8565b6001600160a01b038116610c9c57604051631e4fbdf760e01b81526000600482015260240161050d565b610ca581610d42565b50565b6000546001600160a01b031633146107f15760405163118cdaa760e01b815233600482015260240161050d565b6040516001600160a01b038481166024830152838116604483015260648201839052610d3c9186918216906323b872dd906084015b604051602081830303815290604052915060e01b6020820180516001600160e01b038381831617835250505050610dc8565b50505050565b600080546001600160a01b038381166001600160a01b0319831681178455604051919092169283917f8be0079c531659141344cd1fd0a4f28419497f9722a3daafe3b4186f6b6457e09190a35050565b6040516001600160a01b03838116602483015260448201839052610dc391859182169063a9059cbb90606401610d0a565b505050565b600080602060008451602086016000885af180610deb576040513d6000823e3d81fd5b50506000513d91508115610e03578060011415610e10565b6001600160a01b0384163b155b15610d3c57604051635274afe760e01b81526001600160a01b038516600482015260240161050d565b80356001600160a01b0381168114610e5057600080fd5b919050565b600060208284031215610e6757600080fd5b610e7082610e39565b9392505050565b634e487b7160e01b600052604160045260246000fd5b600082601f830112610e9e57600080fd5b813567ffffffffffffffff811115610eb857610eb8610e77565b604051601f8201601f19908116603f0116810167ffffffffffffffff81118282101715610ee757610ee7610e77565b604052818152838201602001851015610eff57600080fd5b816020850160208301376000918101602001919091529392505050565b600060208284031215610f2e57600080fd5b813567ffffffffffffffff811115610f4557600080fd5b610f5184828501610e8d565b949350505050565b600060208284031215610f6b57600080fd5b5035919050565b600080600060408486031215610f8757600080fd5b833567ffffffffffffffff811115610f9e57600080fd5b8401601f81018613610faf57600080fd5b803567ffffffffffffffff811115610fc657600080fd5b866020828401011115610fd857600080fd5b602091820194509250610fec908501610e39565b90509250925092565b803563ffffffff81168114610e5057600080fd5b60008060008060008060c0878903121561102257600080fd5b61102b87610ff5565b955061103960208801610ff5565b9450604087013567ffffffffffffffff81111561105557600080fd5b61106189828a01610e8d565b945050606087013567ffffffffffffffff81111561107e57600080fd5b61108a89828a01610e8d565b93505061109960808801610e39565b9598949750929591949360a090920135925050565b600080604083850312156110c157600080fd5b6110ca83610e39565b946020939093013593505050565b6000808284036102008112156110ed57600080fd5b833567ffffffffffffffff81111561110457600080fd5b8401610120818703121561111757600080fd5b92506101e0601f198201121561112c57600080fd5b506020830190509250929050565b60006020828403121561114c57600080fd5b5051919050565b8183823760009101908152919050565b60006001820161118357634e487b7160e01b600052601160045260246000fd5b5060010190565b6000815180845260005b818110156111b057602081850181015186830182015201611194565b506000602082860101526020601f19601f83011685010191505092915050565b63ffffffff8916815263ffffffff88166020820152610100604082015260006111fd61010083018961118a565b828103606084015261120f818961118a565b6001600160a01b03979097166080840152505060a081019390935260c083019190915260e090910152949350505050565b60006020828403121561125257600080fd5b610e7082610ff5565b6101e081016040868337604082018560005b600281101561128e576040828437604092830192919091019060010161126d565b50505060408460c084013760e08361010084013795945050505050565b6000602082840312156112bd57600080fd5b81518015158114610e7057600080fdfea264697066735822122060fd1e70aff31ab2d05bc49eeb881a409e79a5ec1258d9f5917b68ce93b4402664736f6c634300081c0033",
  "linkReferences": {},
  "deployedLinkReferences": {}
}